:020000040800F2
:10300000A04D00209D310008BD4C0008154B000864
:10301000B94C000847340008477000080000000061
:103020000000000000000000000000000531000862
:1030300029350008000000004931000865510008EA
:10304000B7310008B7310008B7310008B7310008C0
:10305000B7310008B7310008B7310008B7310008B0
:10306000B7310008B7310008B7310008B7310008A0
:10307000B7310008B7310008B7310008B731000890
:10308000B7310008B7310008B7310008B731000880
:10309000996F0008B7310008B7310008B731000850
:1030A000B7310008B7310008B7310008B731000860
:1030B000B7310008B7310008B7310008B731000850
:1030C000B7310008B7310008B7310008B731000840
:1030D000B7310008B7310008B7310008B731000830
:1030E000B7310008B7310008B7310008DFF810D059
:1030F00000F06CF900F090F800480047057C0008EB
:10310000A04D0020224B19680868B0E8F00F80F34A
:103110000988BFF36F8F4FF0000080F311884EF0E5
:103120000D0E70470000000006480068006880F33C
:10313000088862B661B6BFF34F8FBFF36F8F00DFB1
:1031400000BF00BF08ED00E0EFF30980BFF36F8F11
:103150000F4B1A6820E9F00F106008B54FF05000CF
:1031600080F31188BFF34F8FBFF36F8F05F0B6FB6D
:103170004FF0000080F31188BDE808401968086826
:10318000B0E8F00F80F30988BFF36F8F704700BF7E
:1031900034040020EFF305807047000006488047A4
:1031A00006480047FEE7FEE7FEE7FEE7FEE7FEE72C
:1031B000FEE7FEE7FEE7FEE771510008ED3000088C
:1031C00040EA01039B0703D009E008C9121F08C0A9
:1031D000042AFAD203E011F8013B00F8013B521E29
:1031E000F9D27047D2B201E000F8012B491EFBD2A0
:1031F00070470022F6E710B513460A460446194602
:10320000FFF7F0FF204610BD421C10F8011B0029FB
:10321000FBD1801A7047000070B5054C054D03E0E6
:10322000206820448047241DAC42F9D170BD0000C5
:103230001C8E0008208E000880EA010210B502F002
:103240000043400022D04A001FD0010E01EB126162
:10325000C0F35600C2F3560240F4000042F40002EC
:10326000A0FB022000047F39140400D0401C50EA67
:10327000124001D44000491EC2B20C0604EBD0102B
:10328000401C4008802A02D003E0002010BD20F03E
:103290000100002900DA0020184310BD30B480EA94
:1032A000010202F0004530F0004221F0004013D04E
:1032B00090B1C30DD40DC2F31601C0F31600E41A89
:1032C00041F4000140F400027D34914201D3641CBA
:1032D00000E04900002C02DA30BC002070474FF4B7
:1032E00000000023914201D3891A034340084FEAAA
:1032F0004101F7D151B1914202D14FF0004105E0B7
:1033000002D24FF0010101E06FF0010103EBC45064
:10331000284430BC00F023B8C10F80EAE0700844B4
:10332000CA079623002100F023B8962300221146F5
:1033300000F01EB820F00040C10DC0F3160040F4AC
:1033400000007F2901DA00207047962903DCC1F1D3
:103350009601C840704796398840704770470029E9
:10336000A8BF7047401C490008BF20F0010070470B
:1033700010B4B0FA80FC00FA0CF050EA010404BF6B
:1033800010BC704749B1CCF1200421FA04F411FAC1
:103390000CF118BF012121430843A3EB0C01CB1D05
:1033A0004FEA00614FEA102042BF002010BC704776
:1033B00000EBC35010440029A4BF10BC7047401C50
:1033C000490008BF20F0010010BC7047064C074DB3
:1033D00006E0E06840F0010394E8070098471034E5
:1033E000AC42F6D3FFF786FEFC8D00081C8E000869
:1033F00070B58C1810F8015B15F0070301D110F8B7
:10340000013B2A1106D110F8012B03E010F8016BE3
:1034100001F8016B5B1EF9D12B0705D40023521E66
:103420000DD401F8013BFAE710F8013BCB1A921CCE
:1034300003E013F8015B01F8015B521EF9D5A142CC
:10344000D8D3002070BD00BFFEE70346042B15D083
:1034500007DC7BB1012B0ED0022B0DD0032B12D138
:103460000BE0202B0BD0212B0AD0222B09D0232BB1
:1034700009D107E008E007E006E005E004E003E02A
:1034800002E001E000E000BF00BF00207047002024
:103490007047000010B500220449054802F094F876
:1034A0000449034802F089F8002010BDC838002004
:1034B0003C2A0020E03400202DE9F04104460E466D
:1034C000002500272146094802F077F8074802F056
:1034D00050F8376800BF03E0605D05F04FF86D1CE1
:1034E000BD42F9D30020BDE8F08100003C2A002055
:1034F0002DE9F04104460D4600260A48D0F818721E
:10350000D7F8140210B10120BDE8F0812A46214607
:10351000044802F059F8034802F0A8F8064630467D
:10352000F2E700003C2A00207047000070B5044616
:1035300000F0A8F906462546681C10B1044800783A
:10354000054400BF00F09EF9801BA842FAD370BD6D
:10355000080000202DE9F84703460024002000253C
:103560008446002700226EE14FF0010808FA02F4B9
:10357000D1F8008008EA0400A0427DD1DFF8D0A293
:10358000D1F80480A8EB0A09D0453AD014DCB8F190
:10359000030F50D009DCB8F1000F31D0B8F1010FA2
:1035A0001CD0B8F1020F49D120E0B8F1110F18D0AA
:1035B000B8F1120F42D11EE0B9F5881F25D006DC04
:1035C000B9F5803F20D0B9F5801F37D11AE0B9F5A1
:1035D000001F18D0B9F5041F30D117E0D1F80CC086
:1035E0002DE0D1F80C8008F1040C28E0D1F80C8013
:1035F00008F1080C23E0D1F80C8008F10C0C1EE057
:1036000000BF00BF00BF00BF00BF00BFD1F80880EF
:10361000B8F1000F02D14FF0040C0BE0D1F8088094
:10362000B8F1010F03D14FF0080C1C6102E04FF01C
:10363000080C5C6103E04FF0000C00E000BF00BF2D
:10364000FF2801D8984601E003F104084646FF2808
:1036500002D84FEA820803E0A2F108084FEA88087E
:103660004746D6F800804FF00F0909FA07F928EA13
:1036700009080CFA07F900E088E048EA0908C6F8EA
:103680000080D1F8048008F08058B8F1805F7DD1C7
:1036900000BFDFF8C081D8F8188048F00108DFF8D3
:1036A000B491C9F81880C846D8F8188008F0010805
:1036B000CDF8008000BF00BF4FEAB9384FEA920949
:1036C00058F829504FEA82784FEA18794FF00F08DE
:1036D00008FA09F825EA0805DFF87C81434502D19C
:1036E0004FF0000816E0DFF87481434502D14FF037
:1036F00001080FE0DFF86881434502D14FF002086E
:1037000008E0DFF86081434502D14FF0030801E093
:103710004FF004084FEA82794FEA197908FA09F85C
:1037200048EA0505DFF840814FEA920948F8295038
:10373000D1F8048008F48038B8F5803F0AD1DFF86A
:103740002C81D8F8008048EA0008DFF82091C9F8F9
:10375000008009E0DFF81481D8F8008028EA00082A
:10376000DFF80891C9F80080D1F8048008F4003827
:10377000B8F5003F10D1DFF8F48008F10408D8F85C
:10378000008048EA0008DFF8E49000E05AE009F120
:103790000409C9F800800DE0DFF8D08008F10408C2
:1037A000D8F8008028EA0008DFF8C09009F1040981
:1037B000C9F80080D1F8048008F48018B8F5801F9B
:1037C0000ED1DFF8A88008F10808D8F8008048EA90
:1037D0000008DFF8989009F10809C9F800800DE0A9
:1037E000DFF8888008F10808D8F8008028EA000887
:1037F000DFF8789009F10809C9F80080D1F8048051
:1038000008F40018B8F5001F0ED1DFF8608008F149
:103810000C08D8F8008048EA0008DFF8509009F159
:103820000C09C9F800800DE0DFF8408008F10C08B1
:10383000D8F8008028EA0008DFF8309009F10C0978
:10384000C9F80080521C102AFFF48EAEBDE8F8873C
:10385000000011100010024000080140000C01405F
:103860000010014000140140080001400004014024
:10387000C2684A40C26070470AB1016101E00B04AE
:103880000361704701480068704700000000002095
:1038900003480068034909780844014908607047F3
:1038A000000000200800002010B50848006840F023
:1038B000100006490860032000F0D0F80F2000F047
:1038C00007F800F02BF8002010BD00000020024097
:1038D00070B504460E4800784FF47A71B1FBF0F0F1
:1038E0000C490968B1FBF0F5284600F0FDFF08B16E
:1038F000012070BD102C07D200222146501E00F07E
:103900006EF80548046001E00120F2E70020F0E7CE
:10391000080000200C0000200400002008B500BFB3
:103920002648806940F00100244988610846806982
:1039300000F00100009000BF00BF00BF0846C06952
:1039400040F08050C8610846C06900F08050009087
:1039500000BF00BF032000F081F8002211466FF085
:103960000B0000F03CF8002211466FF00A0000F056
:1039700036F8002211466FF0090000F030F80022FE
:103980001146501F00F02BF800221146101F00F0C6
:1039900026F800220F21901E00F021F800220F21AE
:1039A000501E00F01CF800BF0549486820F0E06098
:1039B00040F00070486000BF08BD000000100240E9
:1039C0000000014000BF00F01F02012191404209A8
:1039D000920002F1E022C2F8001100BF70472DE909
:1039E000F05F80460D461646002701F069F907464C
:1039F00039462A46334601F00700C0F1070ABAF1FA
:103A0000040F02D94FF0040A01E0C0F1070AD146C1
:103A100000F1040ABAF1070F02D24FF0000A01E0E8
:103A2000A0F1030AD4464FF0010A0AFA09FAAAF1F2
:103A3000010A0AEA020A0AFA0CFA4FF0010B0BFA21
:103A40000CFBABF1010B0BEA030B4AEA0B0421461A
:103A5000404601F03DF9BDE8F09F000000BF00F0D6
:103A60000702064B19684FF6FF031940044B0B433E
:103A700043EA0221014B196000BF70470CED00E0E2
:103A80000000FA0570B505460C46002104F08000E0
:103A9000802806D104F07F0605F1280000EB4611CE
:103AA00003E005F50A7000EB44111AB90020887292
:103AB0008B8004E001208872CB80180C08810020E4
:103AC00070BD704770B504460D4604F1280101EB46
:103AD00045114A692946D4F85C0402F089F870BDA2
:103AE00070B504460D4604F50A7101EB45114A69AB
:103AF0002946D4F85C0402F0E8F870BD70B50446BD
:103B00000D46002605F08000802806D105F07F01D3
:103B100004F1280000EB411605E005F07F0104F5F3
:103B20000A7000EB411605F07F00307005F0800050
:103B3000C009707000BF94F82804012801D1022048
:103B400070BD012084F8280400BF3146206802F0CF
:103B5000B4FE00BF002084F8280400BF00BFEFE7D8
:103B600070B504460D46002605F08000802806D179
:103B700005F07F0104F1280000EB411603E004F595
:103B80000A7000EB45160020B07005F07F00307021
:103B9000C5F3C010707000BF94F82804012801D14B
:103BA000022070BD012084F8280400BF314620683F
:103BB00002F0B0FF00BF002084F8280400BF00BF5F
:103BC000EFE7024601F00F0302F50A7000EB431025
:103BD000808B80B270472DE9F04704460D461746AA
:103BE00098464FF00009002605F08000802806D195
:103BF00005F07F0104F1280000EB411605E005F017
:103C00007F0104F50A7000EB411605F07F0030706B
:103C100005F08000C0097070376186F8038000BF2E
:103C200094F82804012802D10220BDE8F087012081
:103C300084F8280400BF3146206802F065FC00BF0C
:103C4000002084F8280400BF4846EEE72DE9F04143
:103C500005460E4617469846002406F07F0105F5F6
:103C60000A7000EB41146761C4F818800020E0611D
:103C7000607006F07F00207006F07F0020B92146BA
:103C8000286802F0E4FF03E02146286802F0DFFF25
:103C90000020BDE8F08170B504460D46002605F011
:103CA0008000802806D105F07F0104F1280000EB98
:103CB000411603E004F50A7000EB45160120B070D0
:103CC00005F07F003070C5F3C010707000BF94F82D
:103CD0002804012801D1022070BD012084F82804A5
:103CE00000BF3146206802F06FFF05F07F0020B969
:103CF00004F22C41206802F00AFF00BF002084F883
:103D0000280400BF00BFE7E72DE9F04105460E4655
:103D100017469846002406F07F0105F1280000EBC5
:103D200041146761C4F818800020E06101206070D0
:103D300006F07F00207006F07F0020B92146286839
:103D400002F085FF03E02146286802F080FF002092
:103D5000BDE8F08110B50446206803F025F900F4B1
:103D60000040B0F5004F02D1204600F0C5FF2068AA
:103D700003F01AF900F48060B0F5806F0ED120686E
:103D8000B0F8440020F480602168A1F84400204687
:103D900000F044F90021204600F063F9206803F0A8
:103DA00003F900F48040B0F5804F07D12068B0F8E7
:103DB000440020F480402168A1F84400206803F00A
:103DC000F3F800F40050B0F5005F07D12068B0F8B8
:103DD000440020F400502168A1F84400206803F05A
:103DE000E3F800F48050B0F5805F1AD12068B0F895
:103DF000400020F004002168A1F840002068B0F8DD
:103E0000400020F008002168A1F84000204600F0A2
:103E10001AF92068B0F8440020F480502168A1F815
:103E20004400206803F0C0F800F40060B0F5006FB3
:103E300020D12068B0F8400040F008002168A1F8C7
:103E400040002068B0F8440020F400602168A1F828
:103E500044002068B0F8400040F004002168A1F858
:103E60004000206803F0A0F8C0F3003010B92046ED
:103E700000F03AF9206803F097F800F40070B0F50C
:103E8000007F0AD12068B0F8440020F40070216857
:103E9000A1F84400204600F0DDF8206803F084F823
:103EA00000F48070B0F5807F07D12068B0F844003E
:103EB00020F480702168A1F8440010BD30B585B0B1
:103EC0000446002514B9012005B030BD94F829043A
:103ED00028B9002084F82804204600F07DF803204B
:103EE00084F82904206802F007FE142204F110016E
:103EF0006846FFF765F994E80F0002F0DAFC00214C
:103F0000206803F06AF8002525E0012104F128006B
:103F100000EB4510417004F1280000EB45100570DE
:103F200004F1280000EB45108581002104F12800F0
:103F300000EB4510C17004F1280000EB4510016151
:103F400004F1280000EB4510416104F1280000EB6A
:103F5000451081616D1C0F2DD7D3002524E0002171
:103F600004F50A7000EB4510417004F50A7000EB8F
:103F70004510057004F1280000EB4510858104F51B
:103F80000A7000EB4510C17004F50A7000EB451093
:103F9000016104F50A7000EB4510416104F50A70F7
:103FA00000EB451081616D1C0F2DD8D3142204F154
:103FB00010016846FFF704F994E80F0002F08DFD48
:103FC000002084F82400012084F82904206802F0ED
:103FD00081FD002078E7000038B504460D492068CF
:103FE000884215D100BF0C48C06940F400000A495E
:103FF000C8610846C06900F40000009000BF00BF1F
:10400000002205211420FFF7EAFC1420FFF7DAFC58
:1040100038BD0000005C00400010024070B504464E
:104020000125A068022801D100BF01E0012500BFE1
:1040300000BF2946D4F85C0401F09AFFD4F85C0470
:1040400001F05CFF70BD10B50446D4F85C0401F0CB
:1040500077FF10BD10B50446D4F85C0401F077FF7B
:1040600010BD70B504460D4600BF94F82804012821
:1040700001D1022070BD012084F8280400BF84F81B
:1040800024502946206802F0ABFF00BF002084F8CE
:10409000280400BF00BFEDE710B5044604F22C4130
:1040A000D4F85C0401F08AFF10BD10B5044600BFCF
:1040B00094F82804012801D1022010BD012084F8C1
:1040C000280400BF01212046FFF7FBFC206802F016
:1040D000FEFC206802F054FF00BF002084F8280492
:1040E00000BF00BFE9E7000010B50446D4F85C0447
:1040F00001F0DBFFA06928B10348006840F006002A
:104100000149086010BD000010ED00E0F8B504465C
:1041100000260025207800F0010000286BD0002741
:104120004348C06900F0805070B900BF4048C06982
:1041300040F080503E49C8610846C06900F0805098
:10414000009000BF00BF01273A48006800F480706B
:10415000B0B93848006840F4807036490860FFF70D
:1041600091FB064606E0FFF78DFB801B642801D912
:104170000320F8BD2F48006800F480700028F2D0BA
:104180002B48006A00F440752DB3A08800F44070FD
:10419000A84220D02648006A20F440750120264914
:1041A0000860002008602248056205F0010090B117
:1041B000FFF768FB064608E0FFF764FB801B41F24F
:1041C0008831884201D90320D3E71948006A00F0FA
:1041D00002000028F0D01648006A20F440706168A0
:1041E000084313490862012F04D10846C06920F032
:1041F0008050C86100BF207800F00200022807D17B
:104200000B48406820F44040A168084308494860D2
:10421000207800F01000102807D10548406820F4ED
:104220008000E1680843024948600020A1E70000DF
:1042300000100240007000404004424270B5044645
:104240000D4600266248006800F00700A8420ED222
:104250005F48006820F0070028435D490860084671
:10426000006800F00700A84201D0012070BD20784E
:1042700000F00200022807D15648406820F0F00004
:10428000A168084353494860207800F001000028E5
:104290005DD06068012806D14E48006800F4003007
:1042A00090B90120E2E76068022806D14948006819
:1042B00000F0007040B90120D8E74648006800F0DF
:1042C000020008B90120D1E74248406820F003000D
:1042D000616808433F494860FFF7D4FA06466068C2
:1042E000012810D108E0FFF7CDFA801B41F2883198
:1042F000884201D90320B9E73648406800F00C0035
:104300000428F0D123E06068022810D108E0FFF70C
:10431000B9FA801B41F28831884201D90320A5E710
:104320002C48406800F00C000828F0D10FE008E0AD
:10433000FFF7A8FA801B41F28831884201D9032097
:1043400094E72448406800F00C000028F0D1204891
:10435000006800F00700A8420ED91D48006820F050
:10436000070028431A4908600846006800F0070063
:10437000A84201D0012079E7207800F00400042849
:1043800007D11448406820F4E060E168084311490F
:104390004860207800F00800082808D10D484068DF
:1043A00020F46050216940EAC1000A49486000F0E9
:1043B0001DF808494968C1F30311074A515CC84018
:1043C000064908600F20FFF783FA00204EE700003F
:1043D0000020024000100240088D00080C00002060
:1043E00001480068704700000C000020F0B585B05F
:1043F0000FF26C0C9CE8E01001A8A0E8E0101CA5EE
:104400002D68009500210022002300240020194D72
:10441000696801F00C05F5B1042D02D0082D19D101
:1044200001E0154819E001ADC1F38346AC5D01F42C
:10443000803555B10F4D6D68C5F340451DF8052019
:104440000D4D6543B5FBF2F302E00C4D04FB05F3A3
:10445000184602E000BF084800BF00BF05B0F0BD2D
:1044600002030405060708090A0B0C0D0E0F1010B5
:10447000010200000010024000127A0000093D0015
:10448000F8B504460025207800F00100002878D017
:10449000F848406800F00C0004280CD0F54840684B
:1044A00000F00C00082811D1F248406800F4803078
:1044B000B0F5803F0AD1EF48006800F400300028D2
:1044C0005FD0606800285CD10120F8BD00BF606843
:1044D000B0F5803F06D1E748006840F48030E549F8
:1044E000086028E0606858B9E248006820F480302D
:1044F000E04908600846006820F4802008601AE05F
:104500006068B0F5A02F0BD1DA48006840F4802035
:10451000D84908600846006840F4803008600AE026
:10452000D448006820F48030D2490860084600680A
:1045300020F48020086000BF606888B1FFF7A2F90E
:10454000054606E0FFF79EF9401B642801D90320C9
:10455000BBE7C848006800F400300028F2D010E043
:10456000FFF790F9054606E0FFF78CF9401B642839
:1045700001D90320A9E7BF48006800F400300028F3
:10458000F2D1207800F00200022857D1B9484068E3
:1045900000F00C0050B1B748406800F00C0008284B
:1045A00018D1B448406800F4803098B9B148006828
:1045B00000F0020020B12069012801D0012084E729
:1045C000AC48006820F0F800616940EAC100A949E0
:1045D000086033E02069E8B10120A7490860FFF7CF
:1045E00051F9054606E0FFF74DF9401B022801D9B5
:1045F00003206AE79F48006800F002000028F2D01C
:104600009C48006820F0F800616940EAC1009949BF
:10461000086013E0002098490860FFF733F9054669
:1046200006E0FFF72FF9401B022801D903204CE7D1
:104630009048006800F002000028F2D1207800F0D5
:10464000080008282DD1A069B8B101208B49086065
:10465000FFF718F9054606E0FFF714F9401B02289A
:1046600001D9032031E78348406A00F002000028A6
:10467000F2D0012000F062FD13E000207F490860C5
:10468000FFF700F9054606E0FFF7FCF8401B02289B
:1046900001D9032019E77748406A00F0020000289A
:1046A000F2D1207800F00400042873D1002671486C
:1046B000C06900F0805070B900BF6E48C06940F01A
:1046C00080506C49C8610846C06900F08050009075
:1046D00000BF00BF01266A48006800F48070B0B9CE
:1046E0006748006840F4807065490860FFF7CAF8C1
:1046F000054606E0FFF7C6F8401B642801D90320F1
:10470000E3E65F48006800F480700028F2D000BF44
:10471000E068012806D15748006A40F00100554979
:10472000086227E0E06858B95248006A20F00100AA
:10473000504908620846006A20F00400086219E047
:10474000E06805280BD14B48006A40F00400494955
:1047500008620846006A40F0010008620AE0454825
:10476000006A20F00100434908620846006A20F010
:104770000400086200BFE068A0B1FFF783F80546B7
:1047800009E0FFF77FF8401B41F28831884202D9E7
:1047900003209AE622E03748006A00F00200002871
:1047A000EFD012E0FFF76EF8054608E0FFF76AF871
:1047B000401B41F28831884201D9032085E62D480B
:1047C000006A00F002000028F0D1012E05D129482E
:1047D000C06920F080502749C86100BFE069C8B3B4
:1047E0002448406800F00C00082860D0E0690228E6
:1047F00048D1002020490866FFF744F8054606E046
:10480000FFF740F8401B022801D903205DE6194854
:10481000006800F000700028F2D1206AB0F5803FF7
:1048200007D11448406820F40030A16808431149BA
:104830004860D4E9080108430E49496821F474111D
:1048400008430C49486001200B490866FFF71AF835
:10485000054607E02DE0FFF715F8401B022801D9B7
:10486000032032E60348006800F000700028F2D010
:104870001FE000000010024000004242800442425B
:104880000070004000200C490866FEF7FBFF05465B
:1048900006E0FEF7F7FF401B022801D9032014E6CB
:1048A0000648006800F000700028F2D101E0012005
:1048B0000BE6002009E60000000042420010024022
:1048C000042808D14FF0E021096941F004014FF0BC
:1048D000E022116107E04FF0E021096921F00401B5
:1048E0004FF0E0221161704770B504462546681EFE
:1048F000B0F1807F01D301200FE0681E4FF0E0216E
:1049000048610F214FF0FF3000F0E2F900204FF036
:10491000E021886107200861002070BD024600BFC9
:1049200092F83C00012801D102207047012082F852
:104930003C0000BF022082F83D001068406820F073
:10494000700013685860106840680B68184313685B
:1049500058601068806820F08000136898601068C4
:1049600080684B68184313689860012082F83D0006
:1049700000BF002082F83C0000BF00BFD5E7000068
:104980001FB5044606492068884208D102200090DD
:1049900001900320039069460248FEF7DBFD1FBD2E
:1049A00000040040000C014070B504460D46164658
:1049B00000BF94F83C00012801D1022070BD012005
:1049C00084F83C0000BF022084F83D0036B1042E7C
:1049D0001BD0082E31D00C2E5ED145E02946206830
:1049E00000F02CFC2068806940F008002168886194
:1049F0002068806920F0040021688861206880694F
:104A0000296908432168886147E02946206800F049
:104A100047FC2068806940F4006021688861206854
:104A2000806920F480602168886120688069296934
:104A300040EA0120216888612FE02946206800F0C3
:104A400067FC2068C06940F008002168C8612068E0
:104A5000C06920F004002168C8612068C069296924
:104A600008432168C86118E02946206800F086FCE8
:104A70002068C06940F400602168C8612068C0698E
:104A800020F480602168C8612068C069296940EA13
:104A900001202168C86100E000BF00BF012084F848
:104AA0003D0000BF002084F83C0000BF00BF85E748
:104AB00010B504460CB9012010BD94F83D0028B98A
:104AC000002084F83C00204600F00CF8022084F816
:104AD0003D00211D206800F077FB012084F83D0097
:104AE0000020E9E708B5094A016891420DD100BFED
:104AF0000749C96941F00201054AD1611146C969F6
:104B000001F00201009100BF00BF08BD0004004099
:104B10000010024000BFFEE700B585B000BF33487B
:104B2000806940F01000314988610846806900F0D2
:104B30001000009000BF00BF00BF0846806940F031
:104B4000200088610846806900F02000009000BFC6
:104B500000BF00BF0846806940F008008861084631
:104B6000806900F00800009000BF00BF00BF084649
:104B7000806940F0040088610846806900F0040004
:104B8000009000BF00BF00224FF400511848FEF70C
:104B900073FE00224FF440711648FEF76DFE4FF48D
:104BA0000050019001200290002003900320049007
:104BB00001A90F48FEF7CEFC4FF400400190002001
:104BC00002900120039001A90B48FEF7C3FC4FF4AB
:104BD0004070019001200290002003900320049077
:104BE00001A90448FEF7B6FC05B000BD0010024064
:104BF00000100140000C01400008014000B589B0E0
:104C00001A481B490860002048600021184881604C
:104C100040F2E731C160002101618161FFF748FF87
:104C200018B1492113A002F010FA00200790089053
:104C300007A90F48FFF772FE18B150210DA002F02E
:104C400004FA6020009000200190029004900C2251
:104C500069460748FFF7A8FE18B1592105A002F0E0
:104C6000F4F90348FFF78CFE09B000BD00040040D2
:104C7000FC2900202E2E2F5372632F74696D2E6332
:104C80000000000010B500220749084800F053FF5B
:104C90000749064801F058FA0649044800F086FC26
:104CA000024801F019FB10BDB80200203C2A002088
:104CB0000C030020EC02002000BFFEE7704700005C
:104CC00002480068C0F30220704700000CED00E0CD
:104CD00010B5002807DA0A07140E054A00F00F0382
:104CE0001B1FD45403E00A07130E024A135410BDCD
:104CF00018ED00E000E400E02DE9FC410546002449
:104D0000002700260020019000900CE2BDF804006E
:104D100000F00F06002E7DD1BDF8040000F0100059
:104D200088BB2868008848F60F7108402968088009
:104D300005F128042868B0F85010207801EBC00075
:104D4000801C296801F5806131F81000C0F309006A
:104D5000E061E16960690844606100212846FEF76E
:104D6000B1FE95F824000028CFD0A0690028CCD14E
:104D700095F8240040F080002968A1F84C0000203C
:104D800085F82400CFE1FFE705F50A74286800885C
:104D90000090BDF8000000F4006018B32868B0F877
:104DA0005010207801EBC000801D296801F580615A
:104DB00031F81000C0F30900E061A18B8BB2A2882A
:104DC00005F22C41286802F0F4F828680088C0F346
:104DD0000E0048F68F710840296808802846FFF7C2
:104DE0005BF9A0E1BDF8000000F4004000288CD081
:104DF00028680088C0F30E0048F68F7108402968C3
:104E000008802868B0F85010207801EBC000801DA1
:104E1000296800E055E001F5806131F81000C0F329
:104E20000900E061E06960B1B4F81CC01FFA8CF3BE
:104E3000A2886169286802F0BCF8E16960690844E9
:104E4000606100212846FEF74BFE2A6802F5806269
:104E50002868B0F85000801D02EB400122693E2A0C
:104E600010D92269C2F34F10227C02F01F020AB946
:104E7000421E90B24FF6FF7202EA802242F40042D4
:104E80000A600DE02269C2F34F00227C02F00102A9
:104E90000AB1421C90B24FF6FF7202EA80220A6009
:104EA000296809884BF68F7201EA020080F480506D
:104EB00080F4005040F4004141F080012A681180E4
:104EC00031E17100286830F811000090BDF8000051
:104ED00000F4004000287CD07100286830F81100F0
:104EE000C0F30E0048F68F7108407200296821F85F
:104EF000120005F50A7000EB4614A07AA8B92868DC
:104F0000B0F85010207801EBC000801D296801F531
:104F1000806131F81000C0F30907EFB3A28861691E
:104F20003B46286802F045F844E0217849002868AB
:104F300030F8110000F48040A8B12868B0F8501093
:104F4000207801EBC000801C296801F5806131F8F0
:104F50001000C0F30907DFB1E28861693B462868A9
:104F600002F027F814E02868B0F85010207801EB20
:104F7000C000801D296801F5806131F81000C0F380
:104F800009072FB1228961693B46286802F011F8B0
:104F900021784900286800E00CE030F8110048F65C
:104FA0008F71084048F2C0010843227852002968F6
:104FB00021F81200E0693844E061606938446061BA
:104FC000A06910B12069B84204D921782846FEF7BB
:104FD00087FD05E021782846D4E90523FEF736FE53
:104FE000BDF8000000F0800000287CD005F128000A
:104FF00000EB46147100286830F8110048F60F7174
:1050000008407200296821F81200A07AD0B92868F7
:10501000B0F85010207801EBC000801C296801F521
:10502000806131F81000C0F30900E061E069E8B385
:10503000B4F81CC01FFA8CF3A2886169286801F0DB
:10504000E1FF4EE021784900286830F8110000F0B7
:105050004000D0B12868B0F85010207801EBC000B3
:10506000801C296801F5806131F81000C0F3090047
:10507000E061E06928B3B4F81CC01FFA8CF3E28841
:105080006169286801F0BEFF1BE02868B0F8501085
:10509000207801EBC000801D296801F5806131F89E
:1050A0001000C0F30900E061E06900E019E040B1E0
:1050B000B4F81CC01FFA8CF322896169286801F0DA
:1050C000A1FF21784900286830F8110048F68F7157
:1050D00008404CF28001084322785200296821F8E8
:1050E0001200286800E01EE0B0F85010207801EBB4
:1050F000C000801C296801F5806131F81000C0F300
:105100000900E061E169606908446061A06920B953
:1051100021782846FEF7D6FC05E021782846D4E918
:105120000523FEF7F1FD2868B0F84400019000F473
:10513000004000287FF4EAADBDE8FC8108B50849CD
:105140000968C9084FF47A72B1FBF2F1414300914A
:1051500000BF00BF00994A1E00920029F9D108BD86
:105160000C00002010B5FEF793FB02F0F0FE10BD1E
:105170001148006840F001000F4908600846406887
:105180000E4908400C494860084600680C49084030
:10519000094908600846006820F480200860084635
:1051A000406820F4FE0048604FF41F008860C80388
:1051B0000449086070470000001002400000FFF83A
:1051C000FFFFF6FE08ED00E000220268184B98424F
:1051D00008D0B0F1804F05D0164B984202D0164B44
:1051E000984203D122F070024B681A43104B984248
:1051F00008D0B0F1804F05D00E4B984202D00E4B34
:10520000984203D122F44072CB681A4322F0800204
:105210004B691A4302608B68C3620B688362044B5C
:10522000984201D10B690363012343617047000079
:10523000002C0140000400400008004030B500246C
:1052400000220023056A25F001050562026A436811
:10525000846924F0700424F003040D682C4322F0C8
:1052600002028D682A430D4DA84206D100BF22F0EC
:105270000802CD682A4322F00402084DA84207D153
:1052800023F4807323F400734D692B438D692B4302
:10529000436084614D684563026230BD002C01406B
:1052A00030B5002400220023056A25F010050562B0
:1052B000026A4368846924F4E04424F440740D686D
:1052C00044EA052422F020028D6842EA05120F4DBF
:1052D000A84207D100BF22F08002CD6842EA051241
:1052E00022F04002094DA84209D123F4806323F43F
:1052F00000634D6943EA85038D6943EA8503436092
:1053000084614D688563026230BD0000002C01405D
:1053100030B5002400220023056A25F4807505625B
:10532000026A4368C46924F0700424F003040D6821
:105330002C4322F400728D6842EA05220E4DA842E9
:1053400007D100BF22F40062CD6842EA052222F4B0
:105350008062094DA84209D123F4805323F40053FD
:105360004D6943EA05138D6943EA05134360C4613F
:105370004D68C563026230BD002C014030B500228B
:1053800000230024056A25F480550562036A4468F9
:10539000C26922F4E04222F440720D6842EA05221A
:1053A00023F400538D6843EA0533074DA84204D126
:1053B00024F480444D6944EA85144460C2614D6818
:1053C0000564036230BD0000002C014002460B461C
:1053D000D2F81812D2F8180218B10020C1F814023D
:1053E00070470220FCE770B504460E46D4F8185208
:1053F0003146204600F0ACFCC5F80C02D4F8180287
:1054000048B1D5F80402D4F81C12CA6805F5037136
:105410009047002070BD0220FCE770B504460E46A0
:1054200000258121204600F0C1FB0121204600F02B
:10543000BDFB8221204600F0B9FBD4F8180250B120
:10544000D4F81C1248688047D4F8180201F054F8C8
:105450000020C4F81802284670BD70B50546D5F87E
:105460001842D5F81C0278B194F80002FF280BD03E
:1054700094F8012294F80002D5F81C128B6821469A
:105480009847FF2084F80002002070BD01460A20E2
:1054900008800148704700000003002001464320B7
:1054A000088001487047000088030020014643201F
:1054B0000880014870470000440300200146432053
:1054C0000880014870470000CC0300202DE9F0411E
:1054D00004460F460026207C70B94FF40073022268
:1054E0008121204600F0A8FC4FF400730222012124
:1054F000204600F0A1FC0BE040230222812120463F
:1055000000F09AFC402302220121204600F094FC86
:10551000082303228221204600F08EFC4FF40770FE
:1055200000F0ECFFC4F81802D4F8180208B90126FC
:105530001CE0D4F81852D4F81C12086880470020E8
:10554000C5F81402C5F81802207C40B94FF4007366
:1055500001212046D5F8042200F09FFC06E04023FC
:1055600001212046D5F8042200F097FC3046BDE822
:10557000F08170B50446D4F81852D4F8180298B1E6
:10558000207C40B94FF4007301212046D5F8042255
:1055900000F083FC06E0402301212046D5F80422D8
:1055A00000F07BFC002070BD0220FCE702460220D8
:1055B00011B1C2F81C12002070470246D2F818320E
:1055C000C3F804120020704710B50346D3F8184200
:1055D000C4F80812C4F81022002010BD70B50546AA
:1055E0000C46D5F81862207800F0600040B32028FF
:1055F00035D1E088E0B1207800F0800060B1E28829
:105600006078D5F81C128B6831469847E28831469D
:10561000284600F0B9F812E0607886F80002A07918
:1056200086F80102E2883146284600F08CF806E050
:105630006078D5F81C1200228B68214698470FE04D
:1056400060780A2802D00B2807D105E0012206491C
:10565000284600F099F800E000BF00BF00BF00BF7F
:1056600000BF002070BD00000F04002070B505468B
:10567000D5F81842D5F8180290B1D4F8140268B9D8
:105680000120C4F81402B4F8100283B28121284624
:10569000D4F8082200F013FD002070BD0120FCE7C3
:1056A0000220FAE770B504460D46D4F814022946E4
:1056B000426820469047002070BD70B504460D46F4
:1056C00094F8FC01022802D0032811D100E000BFA9
:1056D000688801280BD10020C4F80402D4F8140211
:1056E0002946826820469047204600F05EF804E094
:1056F0002946204600F01BF800BF00BF70BD70B502
:1057000006460C4615462B4622460021304600F040
:10571000C4FB002070BD70B506460C4615462B46EE
:1057200022460021304600F0CAFC002070BD70B552
:1057300004460D468021204600F077FC00212046DB
:1057400000F073FC70BD70B504460E46154603208C
:10575000C4F8F4014FF484700551001D05512B4627
:1057600032460021204600F098FB002070BD10B5A5
:1057700004460520C4F8F40100231A4619462046C1
:1057800000F08BFB002010BD70B504460E46154698
:105790000220C4F8F401A561E5612B4632460021E0
:1057A000204600F08CFC002070BD10B5044604209B
:1057B000C4F8F40100231A461946204600F07FFC85
:1057C000002010BD70B505460C462DB9224606498D
:1057D00006A000F087F904E02246034903A000F088
:1057E00081F9014870BD0000E032002043444320AD
:1057F000436F6E6669670000024612200880014808
:1058000070470000D402002070B505460C462DB943
:105810002246064906A000F065F904E02246034945
:1058200003A000F05FF9014870BD0000E0320020E5
:1058300043444320496E74657266616365000000ED
:10584000024604200880014870470000E80200205A
:1058500070B505460C462246024903A000F042F905
:10586000004870BDE032002053544D6963726F658B
:105870006C656374726F6E696373000070B5054682
:105880000C462DB92246064906A000F02BF904E08B
:105890002246034903A000F025F9014870BD00002D
:1058A000E032002053544D333220566972747561D2
:1058B0006C20436F6D506F727400000070B5054628
:1058C0000C462DB92246064906A000F00BF904E06B
:1058D0002246034903A000F005F9014870BD00000D
:1058E000E032002030303030303030303030314134
:1058F0000000000070B504460D46E888012804D079
:1059000029462046FFF713FF1BE094F8FC0102280C
:1059100002D003280FD108E00020A060012204F18A
:1059200008012046FFF730FF0AE00122211D204632
:10593000FFF72AFF04E029462046FFF7F8FE00BFE4
:1059400000BF70BDF8B504460E46708800120828E6
:105950007FD2DFE800F07E040C207E7E5F6D207C2D
:10596000D4F810120A6869469047054676E0207C14
:1059700040B9D4F81402816A684688470546022176
:10598000697007E0D4F81402C16A68468847054682
:105990000221697062E0B078062834D2DFE800F0B6
:1059A000030B131B232B207CD4F810124A68694682
:1059B000904705462CE0207CD4F810128A6869468E
:1059C0009047054624E0207CD4F81012CA68694646
:1059D000904705461CE0207CD4F810120A696946FD
:1059E0009047054614E0207CD4F810124A696946B5
:1059F000904705460CE0207CD4F810128A6969466D
:105A00009047054604E031462046FFF790FEF8BD7A
:105A100000BF23E0207C30B9D4F81402416B684603
:105A2000884705461AE031462046FFF780FEEEE73C
:105A3000207C48B9D4F81402016B684688470546B3
:105A4000072169700AE004E031462046FFF76FFE47
:105A5000DDE731462046FFF76AFED8E700BFBDF814
:105A6000000088B1F08878B1F088BDF80010884255
:105A700002DDBDF8000000E0F0880090BDF80020D5
:105A800029462046FFF780FE00BFC0E70146002000
:105A900002E0421CD0B2491C0A78002AF9D17047B2
:105AA00070B504460D4694F8FC01022802D0032884
:105AB00011D100E000BF0120E060D4F8040218B169
:105AC000E06840F00200E060022204F10C01204690
:105AD000FFF75AFE04E029462046FFF728FE00BFE4
:105AE00000BF70BD2DE9F04104460D461746002663
:105AF000FCB12046FFF7CAFF022101EB40003880CD
:105B00003A783046711CCEB22A5403223046711CBA
:105B1000CEB22A540AE014F8012B3046711CCEB2E2
:105B20002A5400223046711CCEB22A542078002814
:105B3000F1D1BDE8F08170B504460D4616460CB9AA
:105B4000022070BDD4F8140210B10020C4F8140271
:105B50000DB1C4F81052012084F8FC0126702046D3
:105B600000F000F90020ECE72DE9F04104460D4675
:105B7000002600272946D4F82002FDF7F1FF06464B
:105B800036B1012E06D0022E06D0032E08D105E034
:105B9000002707E0022705E0012703E0022701E0D4
:105BA000022700BF00BF3846BDE8F0812DE9F04173
:105BB00004460D46002600272946D4F82002FDF7AA
:105BC0009DFF064636B1012E06D0022E06D0032ECA
:105BD00008D105E0002707E0022705E0012703E0E0
:105BE000022701E0022700BF00BF3846BDE8F08170
:105BF0002DE9F04104460E461746002E54D104F11B
:105C00001405D4F8F401022843D1D5E902018842F1
:105C100010D9D5E90201401AA860288982B2394614
:105C20002046FFF778FD00231A461946204600F06B
:105C300034F92EE0E9686868B0FBF1F201FB12006C
:105C4000B8B9E9686868884213D36868D4F8F8116D
:105C500088420ED2002211462046FFF75CFD00204C
:105C6000C4F8F80100231A461946204600F015F939
:105C70000FE0D4F81402C06840B194F8FC01032886
:105C800004D1D4F81402C168204688472046FFF7A3
:105C90006EFD94F80002012814D1204600F05CFA51
:105CA000002084F800020DE0D4F81402406948B1E5
:105CB00094F8FC01032805D1D4F814023146426956
:105CC000204690470020BDE8F0812DE9F0410546CF
:105CD0000E4617465EBB05F58274D5F8F40103281D
:105CE00033D1D4E90201884210D9D4E90201401A23
:105CF000A060D4E90201884201D2A06800E0E06817
:105D000082B239462846FFF7FAFC1EE0D5F81402A5
:105D1000006940B195F8FC01032804D1D5F81402BC
:105D20000169284688472846FFF73FFD0DE0D5F872
:105D30001402806948B195F8FC01032805D1D5F813
:105D4000140231468269284690470020BDE8F08160
:105D500070B504460D462946D4F82002FDF731FF00
:105D600070BD000010B504462048C0F85C44C4F87B
:105D700020021F481D4908600820486002211B4876
:105D800081600321C16000218161C1610162FEF770
:105D900095F820B14FF4977116A001F056F904F56B
:105DA00008741823002211462068FDF76BFE582363
:105DB000002280212068FDF765FEC023002281219A
:105DC0002068FDF75FFE4FF48873002201212068F0
:105DD000FDF758FE2068A4F508744FF48073002284
:105DE0008221FDF74FFE002010BD0000602C002036
:105DF000005C00402E2E2F5372632F757362645F18
:105E0000636F6E662E63000010B50246D2F8203232
:105E100001F08000802807D101F07F0403F1280001
:105E200000EB4410807810BD01F07F0403F50A7088
:105E300000EB44108078F6E72DE9F04704460F4662
:105E400015461E464FF00008C1462B4632463946DD
:105E5000D4F82002FDF7BFFE8046B8F1000F09D04C
:105E6000B8F1010F09D0B8F1020F09D0B8F1030F52
:105E70000CD108E04FF000090BE04FF0020908E0F8
:105E80004FF0010905E04FF0020902E04FF002096E
:105E900000BF00BF4846BDE8F0872DE9F047044643
:105EA0000D4616461F464FF00008C1463B46324697
:105EB0002946D4F82002FDF7C9FE8046B8F1000F4C
:105EC00009D0B8F1010F09D0B8F1020F09D0B8F12B
:105ED000030F0CD108E04FF000090BE04FF002096E
:105EE00008E04FF0010905E04FF0020902E04FF031
:105EF000020900BF00BF4846BDE8F08710B5044660
:105F00004023002211462046FFF796FF40214FF420
:105F1000887001514023002280212046FFF78CFF2A
:105F200040212162012084F8FC01D4F8180228B134
:105F30002179D4F81402426820469047002010BD11
:105F4000014691F8FD0181F8FC010020704710B571
:105F5000044694F8FC01032808D1D4F81402C0695F
:105F600020B1D4F81402C16920468847002010BD32
:105F700002461174002070472DE9F04104460D4699
:105F8000002600272946D4F82002FEF76AF80646C4
:105F900036B1012E06D0022E06D0032E08D105E020
:105FA000002707E0022705E0012703E0022701E0C0
:105FB000022700BF00BF3846BDE8F08170B5044637
:105FC0000D46294604F5027000F0AAF80120C4F835
:105FD000F40140F20E20005BC4F8F80194F80802C6
:105FE00000F01F0020B1012808D0022812D10BE0D8
:105FF00004F50271204600F076F913E004F5027111
:10600000204600F054FA0DE004F50271204600F03D
:10601000A3F907E094F8080200F08001204600F0A0
:1060200004F800BF00BF002070BD2DE9F041044618
:106030000D46002600272946D4F82002FDF72BFE46
:10604000064636B1012E06D0022E06D0032E08D108
:1060500005E0002707E0022705E0012703E002270B
:1060600001E0022700BF00BF3846BDE8F08170B5EF
:10607000044600250026D4F82002FEF716F805464F
:1060800035B1012D06D0022D06D0032D08D105E033
:10609000002607E0022605E0012603E0022601E0D3
:1060A000022600BF00BF304670BD014691F8FC01DA
:1060B00081F8FD01042081F8FC01002070472DE9E2
:1060C000F04704460D4616461F464FF00008C146ED
:1060D0003B4632462946D4F82002FDF715FE80469D
:1060E000B8F1000F09D0B8F1010F09D0B8F1020FD3
:1060F00009D0B8F1030F0CD108E04FF000090BE014
:106100004FF0020908E04FF0010905E04FF00209E5
:1061100002E04FF0020900BF00BF4846BDE8F0872B
:106120000A7802704A7842708B78CA7803EB0222B0
:1061300042800B794A7903EB022282808B79CA79FB
:1061400003EB0222C28070470246002011B1C2F860
:10615000141200E00220704701460020704770B51D
:1061600004460D46A888F8B9E888E8B9A87800F090
:106170007F0694F8FC01032804D129462046FFF746
:10618000D6FA15E084F8FE6131462046FFF7F4FEAA
:106190002046FFF70AFB1EB1022084F8FC0107E04D
:1061A000012084F8FC0103E029462046FFF7BFFAEE
:1061B00070BD70B504460D460226D4F8140238B1FD
:1061C000D4F81402294602682046904700B90026F8
:1061D000304670BD70B504460D46A8783449087045
:1061E00008460078012804DD29462046FFF79FFA7B
:1061F0005BE094F8FC01022802D003284FD11CE098
:106200002B480078A8B12A4800786060032084F801
:10621000FC01274801782046FFF7CBFF022804D174
:1062200029462046FFF783FA70BD2046FFF7BDFAE6
:1062300002E02046FFF7B9FA36E01D48007870B951
:10624000022084F8FC011A48007860601848017840
:106250002046FFF727FA2046FFF7A7FA1EE0144969
:1062600009786068884216D021792046FFF71AFA2B
:106270000F48007860600E4801782046FFF799FFCC
:10628000022804D129462046FFF751FACCE72046E0
:10629000FFF78BFA02E02046FFF787FA04E0294671
:1062A0002046FFF744FA00BF00BF00BFBCE7000074
:1062B000FC02002070B504460D46688801280AD10A
:1062C000C4F80402D4F81402294682682046904794
:1062D0002046FFF76AFA70BD10B504462046FFF766
:1062E000C6FE002010BD70B505460C46002660783D
:1062F0000A2829D2DFE800F01923281E280A0528D9
:10630000140F21462846FFF71DFB22E021462846B0
:10631000FFF725FF1DE021462846FFF75BFF18E049
:1063200021462846FFF7E6FA13E021462846FFF704
:10633000B7FB0EE021462846FFF7BCFF09E02146E7
:106340002846FFF7BAF904E021462846FFF7EFF99F
:1063500000BF00BF304670BD2DE9F04105460E4636
:106360004FF000083479307800F06000202808D120
:10637000D5F8140231468268284690470020BDE8CF
:10638000F0817078002855D001282AD003287AD1CE
:1063900095F8FC01022802D003281BD107E02CB19C
:1063A000802C03D021462846FFF73FFE17E0708877
:1063B00030B92CB1802C03D021462846FFF735FE9A
:1063C000D5F8140231468268284690472846FFF7E0
:1063D000ECF904E031462846FFF7A9F900BF00BFF9
:1063E00062E095F8FC01022802D003281BD107E0E7
:1063F0002CB1802C03D021462846FFF716FE17E06B
:10640000708878B904F07F0048B121462846FFF72C
:10641000ABFBD5F8140231468268284690472846DF
:10642000FFF7C3F904E031462846FFF780F900BFC3
:1064300000BF39E095F8FC01022802D003282BD1D7
:1064400007E004F07F0018B121462846FFF7EDFD74
:1064500027E004F08000802806D104F07F0105F1D8
:10646000140000EB011005E004F07F0105F58270D7
:1064700000EB0110074621462846FFF7C5FC18B17E
:106480000120386002E00EE0002038600222394628
:106490002846FFF779F904E031462846FFF747F927
:1064A00000BF00BF00E000BF00BF404667E770B517
:1064B00004460D46002694F8FC01032814D12879DF
:1064C00001280CDCD4F81402294682682046904743
:1064D000E88840B93EB92046FFF767F903E029464E
:1064E0002046FFF724F904E029462046FFF71FF96C
:1064F00000BF00BF002070BD70470000014601488A
:1065000070470000C030002010B50246C87830B196
:1065100001282CD0022810D0032836D119E00878A1
:10652000400032F8100048F68F13184040F4007015
:106530000B785B0022F8130028E00878400032F85E
:10654000100048F68F1318400B785B0022F81300F8
:106550001CE00878400032F8100048F68F1318400D
:1065600040F4C0600B785B0022F813000EE008785E
:10657000400032F8100048F68F13184040F4806055
:106580000B785B0022F8130000E000BF00BF087822
:10659000400032F8100048F68F73184048F280032C
:1065A00018430B7818435B0022F81300887A002800
:1065B0007DD1487898B3888840104400B2F85030B4
:1065C000087803EBC00002F5806343F810400878B8
:1065D000400032F8100000F0400068B10878400038
:1065E00032F8100048F68F73184048F2C003184381
:1065F0000B785B0022F813000B785B0032F8133045
:1066000048F6BF7403EA040080F0200040F4004321
:1066100043F080030C78640022F8143047E1FFE770
:10662000888840104400B2F85030087803EBC0006E
:10663000001D02F5806343F81040B2F8504008781E
:1066400004EBC000801D1C4604EB40030C693E2C8B
:1066500010D90C69C4F34F100C7C04F01F040CB962
:10666000441EA0B24FF6FF7404EA802444F40044B0
:106670001C600DE00C69C4F34F000C7C04F00104B5
:106680000CB1441CA0B24FF6FF7404EA80241C60D5
:106690000878400032F8100000F4804078B10878A3
:1066A000400032F8100048F68F73184000E01BE0FD
:1066B0004CF2800318430B785B0022F813000B7830
:1066C0005B0032F813304BF68F7403EA040080F459
:1066D000805080F4005040F4004343F080030C7875
:1066E000640022F81430E2E00878400032F810002C
:1066F00040F4807048F68F73184048F280031843C6
:106700000B785B0022F81300C88840104400B2F8F0
:106710005030087803EBC00002F5806343F8104066
:10672000088940104400B2F85030087803EBC000EC
:10673000001D02F5806343F810404878F0BB0878EC
:10674000400032F8100000F4804068B10878400042
:1067500032F8100048F68F7318404CF2800318434B
:106760000B785B0022F813000878400032F8100024
:1067700000F0400068B10878400032F8100048F698
:106780008F73184048F2C00318430B785B0022F85F
:1067900013000878400032F8100048F68F73184054
:1067A00048F2C00318430B785B0022F813000B7803
:1067B0005B0032F813304BF68F7400E01EE003EA02
:1067C000040080F4805080F4005040F4004343F013
:1067D00080030C78640022F814300B785B0032F8E8
:1067E000133048F6BF7403EA040040F4004343F05A
:1067F00080030C78640022F8143058E008784000D8
:1068000032F8100000F4804068B10878400032F897
:10681000100048F68F7318404CF2800318430B7831
:106820005B0022F813000878400032F8100000F0F6
:10683000400068B10878400032F8100048F68F73C5
:10684000184048F2C00318430B785B0022F813008D
:106850000878400032F8100048F68F7318404CF268
:10686000800318430B785B0022F813000B785B0061
:1068700032F8133048F6BF7403EA040040F40043D2
:1068800043F080030C78640022F814300B785B002E
:1068900032F813304BF68F7403EA040040F40043DF
:1068A00043F080030C78640022F8143000BF00200D
:1068B00010BD10B50446002010BD10B50246887A00
:1068C00000284DD1487828B30878400032F81000ED
:1068D00000F0400068B10878400032F8100048F637
:1068E0008F73184048F2C00318430B785B0022F8FE
:1068F00013000B785B0032F8133048F6BF7403EADC
:10690000040040F4004343F080030C78640022F854
:106910001430DAE00878400032F8100000F48040CB
:1069200068B10878400032F8100048F68F731840BC
:106930004CF2800318430B785B0022F813000B78AD
:106940005B0032F813304BF68F7403EA040040F416
:10695000004343F080030C78640022F81430B4E064
:106960004878002858D10878400032F8100000F428
:10697000804068B10878400032F8100048F68F7304
:1069800018404CF2800318430B785B0022F8130088
:106990000878400032F8100000F0400068B1087834
:1069A000400032F8100048F68F73184048F2C003D8
:1069B00018430B785B0022F813000878400032F887
:1069C000100048F68F73184048F2C00318430B7844
:1069D0005B0022F813000B785B0032F813304BF6A3
:1069E0008F7403EA040040F4004343F080030C7802
:1069F000640022F814300B785B0032F8133048F64C
:106A0000BF7403EA040040F4004343F080030C78B1
:106A1000640022F8143058E00878400032F8100082
:106A200000F4804068B10878400032F8100048F661
:106A30008F7318404CF2800318430B785B0022F8E8
:106A400013000878400032F8100000F0400068B1F0
:106A50000878400032F8100048F68F73184048F26A
:106A6000C00318430B785B0022F81300087840003D
:106A700032F8100048F68F7318404CF28003184328
:106A80000B785B0022F813000B785B0032F81330B0
:106A900048F6BF7403EA040040F4004343F0800367
:106AA0000C78640022F814300B785B0032F8133055
:106AB0004BF68F7403EA040040F4004343F0800374
:106AC0000C78640022F8143000BF002010BD01468D
:106AD0000020704701460020704710B50446012091
:106AE00024F8400F00202080A0802082403C2046D7
:106AF00000F046FA002010BD014600224FF43D424E
:106B0000B1F840009043A1F84000002070470246D1
:106B10000020704710B50246487848B30878400016
:106B200032F8100000F0400068B10878400032F8F8
:106B3000100048F68F73184048F2C00318430B78D2
:106B40005B0022F813000B785B0032F8133048F634
:106B5000BF7403EA040080F0100080F0200040F4CD
:106B6000004343F080030C78640022F8143029E0DD
:106B70000878400032F8100000F4804068B10878CE
:106B8000400032F8100048F68F7318404CF2800332
:106B900018430B785B0022F813000B785B0032F887
:106BA00013304BF68F7403EA040080F4805080F4B5
:106BB000005040F4004343F080030C78640022F856
:106BC000143000BF002010BD10B502460878A0B9EF
:106BD0000B785B0032F813304BF6BF7403EA040005
:106BE00080F4805080F0100040F4004343F08003B4
:106BF0000C78640022F8143027E0487890B10B78C4
:106C00005B0032F8133048F6BF7403EA040080F0EA
:106C1000100040F4004343F080030C78640022F835
:106C2000143012E00B785B0032F813304BF68F749F
:106C300003EA040080F4805040F4004343F08003F2
:106C40000C78640022F8143000BF002010BDF0B5AD
:106C500006460C460027A569607801287CD1216989
:106C6000A069884204D92569A069401BA06102E09F
:106C7000A5690020A061A07A80B9ABB2A288304695
:106C8000616900F0BFF9B6F85010207801EBC00040
:106C9000801C06F5806141F81050A1E0207840008A
:106CA00036F8100000F04000C0B3607838BBB6F88A
:106CB0005020207802EBC000801D06F5806202EBB8
:106CC00040013E2D0ED9C5F34F1005F01F020AB941
:106CD000421E90B24FF6FF7202EA802242F4004256
:106CE0000A600BE0C5F34F0005F001020AB1421C37
:106CF00090B24FF6FF7202EA80220A600CE06078E0
:106D0000012809D1B6F85010207801EBC000801C92
:106D100006F5806141F81050278939E0FFE7607877
:106D200040BBB6F85020207802EBC000801C06F56E
:106D3000806202EB40013E2D0FD9C5F34F1005F0E4
:106D40001F020AB9421E90B24FF6FF7202EA802279
:106D500042F400420A600CE057E0C5F34F0005F032
:106D600001020AB1421C90B24FF6FF7202EA802281
:106D70000A600CE06078012809D1B6F8501020783C
:106D800001EBC000801C06F5806141F81050E788D7
:106D9000ABB23A463046616900F034F9607870B9B8
:106DA0002078400036F8100048F68F71084048F20D
:106DB000C00108432178490026F8110010E06078EE
:106DC00001280DD12078400036F8100048F68F7168
:106DD00008404CF2800108432178490026F8110050
:106DE0002178490036F8111048F6BF7201EA020016
:106DF00080F0100080F0200040F4004141F080015C
:106E00002278520026F81210B8E02169A069884261
:106E100004D92569A069401BA06102E0A569002092
:106E2000A061A07A38BBB6F85020207802EBC000F1
:106E3000801D06F5806202EB40013E2D0ED9C5F3A0
:106E40004F1005F01F020AB9421E90B24FF6FF72B2
:106E500002EA802242F400420A600BE0C5F34F00D0
:106E600005F001020AB1421C90B24FF6FF7202EA2D
:106E700080220A606DE0607838BBB6F85020207838
:106E800002EBC000801C06F5806202EB40013E2D43
:106E90000ED9C5F34F1005F01F020AB9421E90B279
:106EA0004FF6FF7202EA802242F400420A600BE0D1
:106EB000C5F34F0005F001020AB1421C90B24FF633
:106EC000FF7202EA80220A600CE06078012809D192
:106ED000B6F85010207801EBC000801C06F58061E8
:106EE00041F81050607838BBB6F85020207802EB9B
:106EF000C000801D06F5806202EB40013E2D0ED9D8
:106F0000C5F34F1005F01F020AB9421E90B24FF6AA
:106F1000FF7202EA802242F400420A600BE0C5F3ED
:106F20004F0005F001020AB1421C90B24FF6FF7209
:106F300002EA80220A600CE06078012809D1B6F8E4
:106F40005010207801EBC000801C06F5806141F8EC
:106F500010502178490036F811104BF68F7201EA73
:106F6000020080F4805080F4005040F4004141F071
:106F700080012278520026F8121000BF0020F0BDD8
:106F8000014600224FF43F42B1F840001043A1F8FF
:106F9000400000207047000010B50248FCF7DAFE00
:106FA00010BD0000602C002001460020B1F8440014
:106FB0007047F0B55F1C7E100024002500EB4207EF
:106FC00007F58065344605E035F804CB21F801CBA0
:106FD000491C641E002CF7D1F0BD0246002070470A
:106FE000024611B98020A2F84C00002070470146EB
:106FF000012021F8400F00208880032021F840095B
:10700000002070472DE9F041044603F101084FEAE2
:1070100068070025AC460026002004EB420808F56E
:1070200080603D460BE091F800C0491C91F800805B
:107030004CEA082620F8026B801C491C6D1E002DAE
:10704000F1D1BDE8F08100BFFEE700BFFEE710B55B
:107050000446204600F0C6F9502801D1012010BD99
:107060000020FCE700B585B000BF1948806940F0FA
:107070000400174988610846806900F00400009008
:1070800000BF0022C9141348FCF7F6FB00224FF49E
:1070900080511048FCF7F0FB4FF400600190012094
:1070A0000290002003900320049001A90948FCF7F6
:1070B00051FA4FF48050019001200290002003907B
:1070C0000320049001A90348FCF744FA05B000BD71
:1070D000001002400008014008B504A000680090BC
:1070E0000221684600F040F908BD000012100000BF
:1070F0000CE007480078642805D100200449087096
:10710000044800F0B9FC0A2000F010FFF1E700008D
:10711000140000201C0C002008B504A0006800909A
:107120000221684600F020F908BD0000121300009B
:107130000024651EFDF7A6FD00BF022000F0F6FE4C
:10714000002409E001F034FA0546002D00DA05E0DC
:1071500006490D55601CC4B2402CF3DB00BF002C67
:10716000EBDD21460148FCF7C3F9E6E72C120020CD
:107170004FF0000900240027A0460025FDF782FDFE
:1071800000BF00F093FD8146A9F16000082873D28A
:10719000DFE800F0047272726869707180213B4808
:1071A000FCF727F84FF400713948FCF722F84FF448
:1071B00000713848FCF71DF84FF400713648FCF7B1
:1071C00018F800F01BFD06463046FCF71DF81FFAC4
:1071D00080F8002700240AE0355D0A2D00D108E080
:1071E0003846791C8FB229490D54601C84B244453D
:1071F000F2DB00BF0027601C84B20AE0355D0A2D77
:1072000000D108E03846791C8FB221490D54601C2A
:1072100084B24445F2DB00BF0027601C84B20AE060
:10722000355D0A2D00D108E03846791C8FB2194926
:107230000D54601C84B24445F2DB00BF0027601C83
:1072400084B20BE0355D0A2D00D005B908E0384660
:10725000791C8FB210490D54601C84B24445F1DB97
:1072600000BF0AE009E000BF01200C49087000BF20
:1072700003E001E001E000E000BF00BF084880F843
:1072800000900A2000F052FE7BE700007C120020F4
:10729000FC120020FC140020FC16002076020020C6
:1072A0001400002010B594B001200A9000040B9047
:1072B00000200C9001200E9002201190C103129129
:1072C000C10413910AA8FDF7DBF820B14FF4BD719A
:1072D0001BA0FFF7BAFE0F200590022006900020A9
:1072E00007904FF4806008900990012105A8FCF7F1
:1072F000A5FF20B14FF4C47111A0FFF7A6FE102026
:1073000001908004049001A8FCF700FF20B140F236
:107310008F110BA0FFF799FEFDF762F84FF47A7119
:10732000B0FBF1F42046FDF7DFFA0420FDF7C8FAC0
:1073300000221146501EFCF752FB14B010BD000095
:107340002E2E5C6D757369635C6D61696E2E637062
:1073500070000000024A0A400243024B1A60704764
:1073600080FFFF1F08ED00E070B505460E460024C3
:1073700000BF03E0285D01F035F9641CB442F9D385
:1073800070BD000070B503460C4614484068A8B9AB
:10739000002011E00146002508E001F001061EB1C1
:1073A0000F4E86EA510100E049086D1C082DF4D308
:1073B0000A4D45F82010401CFF28EBD9002008E0BA
:1073C000195C5140C9B2054D55F8211081EA1222CD
:1073D000401CA042F4D3104670BD0000FC240020E5
:1073E0002083B8ED70B504460025681E0E4908607C
:1073F00001F0DAF8051900BF01F0A6F80A490860A3
:1074000008460068002807DB08480068401C074958
:1074100008600548006870BD01F0C6F8A842EBD3CB
:1074200000BF01480068F6E7AC020020A802002077
:1074300001B504216846FFF797FF08BD2DE9F04725
:1074400004460D46164604F1080030F8157004F1A4
:10745000D20131F81500FBF768FF82463146FBF791
:10746000EBFE8146FBF766FF1FFA80F800210B4810
:10747000006801640120FCF759F800BF0748006864
:10748000C7620648C76000BF0068C0F840804FF47C
:1074900000510348FCF7ECF9BDE8F087FC29002017
:1074A000001001402DE9F04704460D46164604F150
:1074B000D20131F81500FBF738FF81463146FBF762
:1074C000BBFE8046FBF736FF87B2024800680764C0
:1074D000BDE8F087FC2900202DE9F04F85B0044677
:1074E0000E467068FBF790FE80B20490002570682D
:1074F000FBF78AFE80B2049000BF2046316800F09E
:1075000077F95AE10027B946BB46B84600BF4FF4A9
:10751000C06104F11000FBF76CFE08E17068475D84
:10752000B06810F80590F06810F805B000200290DF
:107530000390681C85B2302F76DB372F74DCA7F1FF
:107540003000082822D2DFE800F02004080C1014D4
:10755000181C01208DF808001CE003208DF808009D
:1075600018E005208DF8080014E006208DF80800CA
:1075700010E008208DF808000CE00A208DF80800C3
:1075800008E00C208DF8080004E000BF00208DF812
:10759000080000BF00BF9DF8080000284FDDB9F1CA
:1075A0002A0F0AD19DF808102079801C0C2202FBBA
:1075B0000010C0B28DF8080041E0B9F12D0F0AD1DA
:1075C0009DF808102079401C0C2202FB0010C0B26C
:1075D0008DF8080033E0B9F12E0F09D19DF80800AD
:1075E00021790C2202FB0100C0B28DF8080026E0D0
:1075F000B9F1480F0AD19DF808102079C01C0C225F
:1076000002FB0010C0B28DF8080018E0B9F14C0F71
:107610000BD19DF808102079401E0C2202FB0010AF
:10762000C0B28DF808000AE07DE09DF808102079CE
:10763000401C0C2202FB0010C0B28DF808007068DC
:10764000475D232F07D19DF80800401CC0B28DF87C
:107650000800681C85B2BBF1200F02D10120019007
:1076600014E0BBF12D0F02D1022001900EE0BBF11E
:107670003D0F02D10420019008E0BBF14F0F02D171
:107680000820019002E00420ADF80A002189019849
:1076900091FBF0F080B2ADF80A007068475D2E2FC4
:1076A00008D1BDF80A0000EB600080B2ADF80A0016
:1076B000681C85B20020ADF80C007068475D09E0D9
:1076C000681C85B2BDF80C00401C80B2ADF80C00FF
:1076D0007068475D2D2FF3D09DF80800002806DD67
:1076E0009DF80800A17A0844C0B28DF808009DF802
:1076F000081008EB480204F1100000F81210BDF861
:107700000A1008EB480200EB42004180BDF80C1063
:1077100008EB480204F1100000EB4200818008F100
:1077200001001FFA80F8B8F1FF0F00D903E00498B8
:107730008542FFF6F3AE00BF4FF0000A00BF37E00E
:107740000AEB4A0104F1100010F811008DF808004E
:107750000AEB4A0104F1100000EB41004088ADF84B
:107760000A000AEB4A0104F1100000EB4100808896
:10777000ADF80C00144800880090BDF80C00B4F877
:1077800008E000FB0EF083B2BDF80A209DF8081057
:107790002068D0F800C02046E0470C480078012857
:1077A00002D105B0BDE8F08F0AF101001FFA80FA9E
:1077B000C245C5DB4FF0000800BF04988542FFF6C4
:1077C000A1AE00BFEDE700007402002076020020A9
:1077D00010B5044600200449087020680349C268B7
:1077E0002046904710BD0000760200206C12002059
:1077F00030B502460B46002104205071062010715E
:10780000012090723F20D08000BF06E0585C10B984
:107810004FF6FF7030BD481C81B2585C3A28F5D154
:10782000481C81B2585C642818D1881C81B200249D
:1078300009E008464D1CA9B2185C303804EB8405F9
:1078400000EB450084B2585C302802DB585C3928D4
:10785000EFDD002C00DD5471481C81B2585C6F28AC
:107860000ED1881C81B208464D1CA9B2185C303874
:1078700084B2032C02DB072C00DC1471481C81B29B
:107880001079C01E1071585C622816D1881C81B214
:10789000002409E008464D1CA9B2185C303804EBFE
:1078A000840500EB450084B2585C302802DB585C4C
:1078B0003928EFDDD480481C81B2585C63282ED172
:1078C000881C81B2585C413807281AD2DFE800F0E2
:1078D000131604070A0D10000120907214E0032013
:1078E000907211E0052090720EE0062090720BE07D
:1078F0000820907208E00A20907205E00C20907237
:1079000002E00120907200BF00BF481C81B2585CA9
:10791000232804D1907A401C9072481C81B2D088F0
:107920004EF6602595FBF0F01081084672E770B5C1
:1079300005460C46204600F0F9FA70BD2DE9FE4FD1
:10794000044689461746984600250026A7F11400EC
:1079500000EBD07149100DB205F00100281A05B2F4
:10796000E068016800220B694946984700BF1FE0A4
:107970002846FBF7D1FC02903046FBF7CDFC019086
:107980000C98FBF7D2FC00900199FBF755FC83465D
:107990000299FBF783FC8246E068016852464B6916
:1079A0004946984702212046FFF7C1FFB01C06B2A6
:1079B000AE42DDDB0C98FBF7B8FC8246E06801685C
:1079C00052464B694946984707EB08001438401B5C
:1079D00005B22E461FE02846FBF79EFC029030467B
:1079E000FBF79AFC01900C98FBF79FFC0090019923
:1079F000FBF722FC83460299FBF750FC8246E068C5
:107A0000016852464B694946984701212046FFF7D5
:107A10008EFF701E06B21E2EDDDAE06801680022BD
:107A20004B694946984732212046FFF780FFBDE861
:107A3000FE8F0000064A0260C160064A064B1A60CB
:107A4000064A5A60064A9A60064ADA6070470000A1
:107A5000A48D00087C1200206C120020FC12002073
:107A6000FC140020FC16002070B504460D46294683
:107A70002046FFF731FD70BD10B504462046FFF7E4
:107A8000A7FE10BD2DE9FE4F0446894617469846CD
:107A900000260025A7F10A0000EBD07149100EB2B4
:107AA00006F00100301A06B2E068016800220B6996
:107AB0004946984700BF1FE03046FBF72DFC029077
:107AC0002846FBF729FC01900C98FBF72EFC009050
:107AD0000199FBF7B1FB83460299FBF7DFFB824676
:107AE000E068016852464B694946984702212046A2
:107AF000FFF71DFFA81C05B2B542DDDB0C98FBF7B4
:107B000014FC8246E068016852464B694946984732
:107B100007EB0800401B06B235461FE03046FBF776
:107B2000FBFB02902846FBF7F7FB01900C98FBF754
:107B3000FCFB00900199FBF77FFB83460299FBF762
:107B4000ADFB8246E068016852464B69494698475A
:107B500002212046FFF7EBFEA81E05B2142DDDDA48
:107B6000E068016800224B694946984705F1140016
:107B700081B22046FFF7DBFEBDE8FE8F0020FBF759
:107B8000EDBB02E008C8121F08C1002AFAD17047F5
:107B90007047002001E001C1121F002AFBD170478D
:107BA00070B50C480C4901600C49416000BF0C499C
:107BB000016000BF01460B48FFF73CFF0A4C054D32
:107BC00029462046FFF736FF04460848206000BFDC
:107BD00070BD000070040020648D000840420F005A
:107BE000848D00080C0600201C0C0020C08D0008AD
:107BF00010B50446204600F099F910BD00487047C2
:107C0000FC1C002090B04FF440514FF00060FFF793
:107C1000A1FBFBF749FEFFF745FB1B48FFF7E7F920
:107C2000FFF720FA4FF4FA70FBF780FCFCF774FFC3
:107C3000FCF7E4FF142215490BA8FBF7C1FA002159
:107C40000BA800F08CF91249086014220F49143176
:107C500006A8FBF7B5FA002106A800F080F90D4947
:107C6000086014220949283101A8FBF7A9FA00216C
:107C700001A800F074F90849086000F063F902E017
:107C8000012000F053F9FBE7005C0040208D000864
:107C9000B002002010000020B402002001460020A5
:107CA000842901D0CA1C1044704700002DE9FC4112
:107CB0000025A8464FF40060984988602DE14FF0F8
:107CC000FF30019001900A20FFF792FF00BF4FF4B0
:107CD000FA70FFF787FB019001980028F7DB019805
:107CE00060281FD010DC272871D006DC212813D093
:107CF000222845D023286BD176E0292869D0312865
:107D000068D03228F7D1F0E06438062860D2DFE886
:107D100000F0131C252EC5D50220FFF798F900B9F5
:107D2000F8E0F3E00220FFF792F900B9F2E0FFF784
:107D3000D3F96020BDE8FC810220FFF788F900B983
:107D4000E8E0FFF7C9F96420F4E70220FFF77FF9C4
:107D500000B9DFE0FFF7C0F96520EBE70220FFF78D
:107D600076F900B9D6E0FFF7B7F96620E2E702201E
:107D7000FFF76DF900B9CDE0FFF7AEF96720D9E75D
:107D80004FF47A70FFF72EFB0446002C00DAC1E0B6
:107D90000220FFF75CF900B9BCE0022C06D0032CEE
:107DA00009D0042C0DD00F2C1BD114E004215B480A
:107DB000FFF7DAFA16E004215848001DFFF7D4FA5D
:107DC00010E0042155480830FFF7CEFA0AE017E02A
:107DD0009BE04BE098E0042150480C30FFF7C4FAD8
:107DE00000E097E000BF91E00220FFF730F900B912
:107DF00090E04FF400614A48FBF7FBF9002585E06D
:107E00003220FFF7EFFA0446002C00DA82E0E11797
:107E100004EB91718910A4EB810101B17AE028197A
:107E2000B0F5006F00D975E0B4F5807F00D971E03E
:107E300000260CE04FF47A70FFF7D4FA0190019815
:107E4000002800DA66E0374901988855761CA6427A
:107E5000F0DBC820FFF7FBF800B95BE030494819B8
:107E600022463049FBF7ACF925444FE00220FFF7EA
:107E7000EEF800B94EE00027002607E028498819EF
:107E80003A460421FFF77EFA0746361D23488068EC
:107E9000B042F3D83846FFF7CBFA37E00220FFF7BD
:107EA000D6F800B936E00020009000BF1E480078E8
:107EB000009001216846FFF757FA27E04FF47A70E7
:107EC000FFF790FA01900198002800DA22E00220E2
:107ED000FFF7BDF800B91DE00199C8B2642800DDC4
:107EE00064201149088000BF10E0002608E00C491A
:107EF00088198021FFF738FA0A20FFF779FE8036CB
:107F0000B6F5007FF3D301E000E006E000BFFFF725
:107F1000E3F802E0FFF700F900BFD0E678020020A6
:107F2000FC1C0020FC2800207402002070B50446D0
:107F300025460DB1294600E00121084600F054FC19
:107F4000002070BD10B500F07DFC002010BD10B504
:107F500000F0A4FD012801D000F056FD10BDFEB5D3
:107F600004460D46B4F90800FFF798FE064602A83D
:107F7000CDE90060238A9AB22B46D4E9001000F0C4
:107F80005DFD012801D00020FEBD0298FCE7000045
:107F90002DE9F04105460E461C4807681C4800685C
:107FA000001D00F035FB50B91948006890F82C10FE
:107FB0000120884017490968814316480160681C00
:107FC00038B936B112480168091D134800F05EFB4C
:107FD0001AE07C190E4800684460BC4207D20C4885
:107FE0000168091D0D48006800F036FB0CE00848E8
:107FF0000168091D0A48006800F02EFB0948006866
:10800000844201D207480460BDE8F08148040020A2
:10801000340400204C0400208C4900203C04002043
:10802000380400206404002010B5044600F03AFB38
:1080300023480068401C224908602248006840B973
:10804000204804600846006801280DD100F02AF994
:108050000AE01D48006838B91A480068C06AE16A39
:10806000884201D81748046018480068401C174926
:10807000086094F82C1001208840154909680843CD
:1080800013490860E16A01EB8101124A02EB8100A9
:10809000211D00F0FBFA00F02FFB0B48006868B1CF
:1080A00008480068C06AE16A884207D24FF08050F1
:1080B00009490860BFF34F8FBFF36F8F10BD0000F9
:1080C00044040020340400205004002060040020F8
:1080D0004C040020B048002004ED00E070B523E01F
:1080E00000F0F4FB1348006808B9012000E000200C
:1080F000054600F087FDBDB900F0D4FA0D48C06810
:10810000C468201D00F084FA0B480068401E0A492C
:1081100008600A480068401E0849086000F0ECFA50
:10812000204600F00DF800BF044800680028D7D1B1
:1081300070BD000078490020440400204004002065
:1081400010B50446206B00F0F5FA204600F0F2FA74
:1081500010BD000030B54FF44063174800F007042D
:108160002CB1C01D20F00700134C041B1B1B024642
:10817000124C22600024114D6C60D018083820F099
:1081800007000F4C206000240D4D2D686C600C4DD5
:108190002D682C601146441A4C60094C24680C6010
:1081A000084D4C682C60084D4C682C604FF0004422
:1081B000064D2C6030BD0000B03C002010040020B3
:1081C00018040020200400201C04002024040020A7
:1081D00000BFFFF783FF064800680128F9D94FF078
:1081E000805004490860BFF34F8FBFF36F8FF0E7F3
:1081F000B048002004ED00E02DE9FF5F81460F4606
:108200009246DDE90E6B109CAAF10100216B01EB97
:10821000800828F0070808F0070008B9012000E0EE
:10822000002050B900BF502080F31188BFF34F8F5A
:10823000BFF36F8F00BF00BFFEE7002507E0795D49
:1082400004F134004155785D00B902E06D1C102D39
:10825000F5D300BF002143200155072E00D3062689
:10826000E66266640020A064201D00F0F2F904F1CB
:10827000180000F0EEF92461C6F10700A061646205
:108280000020E06484F8500049464046039A00F01C
:1082900049F92060BBF1000F01D0CBF80040BDE8E8
:1082A000FF9F000010B5002407E004EB84010F4A93
:1082B00002EB810000F0C0F9641C072CF5D30C48D8
:1082C00000F0BAF90B4800F0B7F90B4800F0B4F928
:1082D0000A4800F0B1F90A4800F0AEF9044809492B
:1082E000086004480849086010BD0000B04800203C
:1082F0003C49002050490020644900207849002072
:108300008C490020380400203C04002010B50146B0
:10831000164800E0006803688B42FBD302464368BE
:1083200013448B4204D143684C68234443600146A4
:108330000A464B6813440468A34211D10C4C0368ED
:108340002468A34208D04B680468646823444B60E7
:1083500003681B680B6005E0054B1B680B6001E0C0
:1083600003680B60884200D0016010BD100400203B
:10837000180400200A490968096809B9012100E0C8
:10838000002121B14FF0FF31064A116006E0044997
:108390000968C968C868034A4168116070470000ED
:1083A00038040020640400200E480068401C08B90E
:1083B000012000E0002050B900BF502080F3118858
:1083C000BFF34F8FBFF36F8F00BF00BFFEE700BF4B
:1083D000502080F31188BFF34F8FBFF36F8F00BF22
:1083E00000BFFEE7280400202DE9F04104464FF0CD
:1083F000000800F06BFA4648006808B9FFF7AAFECB
:1084000044480068204000286BD1D4B1083404F0FF
:108410000700B0B104F00700C0F10800044404F004
:10842000070008B9012000E0002050B900BF50202B
:1084300080F31188BFF34F8FBFF36F8F00BF00BF72
:10844000FEE7002C4DD034480068844249D8334EB2
:108450003046056801E02E462D686868A04202D2C9
:1084600028680028F7D12A480068854239D030684A
:1084700000F10808286830606868001B102819D9C6
:108480002F1907F0070008B9012000E0002050B9BB
:1084900000BF502080F31188BFF34F8FBFF36F8F61
:1084A00000BF00BFFEE76868001B78606C6038465C
:1084B000FFF72CFF184968680968081A1649086010
:1084C0000846006816490968884203D212480068C5
:1084D000134908600F49686809680843686000200C
:1084E000286000F08FFB08F0070008B9012000E0C9
:1084F000002050B900BF502080F31188BFF34F8F88
:10850000BFF36F8F00BF00BFFEE74046BDE8F081BC
:1085100018040020240400201C0400201004002063
:1085200020040020001F4FF080730360001F21F023
:1085300001030360001F034B0360143802602038FE
:1085400070470000A98300084FF0FF300849096810
:10855000084A126891420AD00749054A1268885CA5
:1085600003490988491CC1F30801014A1160704799
:108570009C02002098020020FC180020074A128864
:10858000521CC2F30801064A1268914205D0054AFE
:10859000024B1B68D054014A1160704798020020BA
:1085A0009C020020FC18002010B5FBF76BF910BDF1
:1085B0004FF0FF3008490968084A126891420AD012
:1085C0000749054A1268885C03490988491CC1F3B8
:1085D0000801014A11607047A4020020A002002097
:1085E000FC1A0020074A1288521CC2F30801064AEE
:1085F0001268914205D0054A024B1B68D054014ACB
:1086000011607047A0020020A4020020FC1A002084
:1086100001460A69D1E901309860D1E90103586047
:108620005068884201D18868506000200861106855
:10863000401E10601068704700F1080141604FF063
:10864000FF31816000F10801C1600161002101601A
:10865000704700210161704710B502460B685C1C31
:108660000CB9106907E002F1080000E040684468B6
:1086700024689C42FAD944684C604C68A1608860C8
:1086800041600A611468641C146010BD42684A604D
:1086900093688B60936859609160086103685B1C04
:1086A0000360704700BF502080F31188BFF34F8FE5
:1086B000BFF36F8F00BF0E480068401C0C49086074
:1086C00008460068012812D10A480068C0B208B9FB
:1086D000012000E0002050B900BF502080F3118835
:1086E000BFF34F8FBFF36F8F00BF00BFFEE7704730
:1086F0002804002004ED00E00D48006850B900BFD8
:10870000502080F31188BFF34F8FBFF36F8F00BFEE
:1087100000BFFEE706480068401E0549086008469D
:10872000006820B9002080F3118800BF00BF7047A7
:108730002804002070B506463546002E3FD0083D7F
:108740002C461F4960680968084008B1012000E014
:10875000002050B900BF502080F31188BFF34F8F25
:10876000BFF36F8F00BF00BFFEE7206808B901208C
:1087700000E0002050B900BF502080F31188BFF303
:108780004F8FBFF36F8F00BF00BFFEE70C496068DB
:108790000968084098B1206888B909496068096883
:1087A0008843606000F092F80649606809680844F0
:1087B000044908602046FFF7A9FD00F023FA70BDC8
:1087C000240400201C040020064800684FF47A713D
:1087D000B0FBF1F0401E4FF0E02148610720086136
:1087E000704700000C00002070B504460025D4B18D
:1087F0001248006808B9012000E0002050B900BF0D
:10880000502080F31188BFF34F8FBFF36F8F00BFED
:1088100000BFFEE700F05AF800212046FFF7B8FB42
:1088200000F0F0F905463DB94FF08050044908606A
:10883000BFF34F8FBFF36F8F70BD00006C0400203B
:1088400004ED00E01CB51A4800210B468022CDE95A
:10885000001018A1194800F0F1F80446012C15D1B8
:1088600000BF502080F31188BFF34F8FBFF36F8F8D
:1088700000BF4FF0FF301249086001201149086025
:1088800000201149086000F06FF810E0601C08B18A
:10889000012000E0002050B900BF502080F3118873
:1088A000BFF34F8FBFF36F8F00BF00BFFEE71CBD4C
:1088B0006804002049444C4500000000D1810008B4
:1088C000640400205004002048040020024800688E
:1088D000401C0149086070476C0400201D48006876
:1088E00018B101201C49086032E000201A490860D4
:1088F0001A480068B0FA80F0C0F11F0101EB810056
:10890000174A52F8200008B1012000E0002050B9B9
:1089100000BF502080F31188BFF34F8FBFF36F8FDC
:1089200000BF00BFFEE701EB81020D4B03EB8200AD
:1089300042685268426000F108024368934202D1E3
:108940004268526842604268D268064B1A6000BFB3
:10895000704700006C040020580400204C040020E4
:10896000B0480020340400201CB522480146097894
:108970000191FF21024611700146097800919DF88E
:10898000001001F050011C4A117007211B4A1160B0
:1089900009E01A490968491E184A11609DF800103B
:1089A0004906090E00919DF8001001F08001802910
:1089B000EFD0124909680902104A1160114609886E
:1089C00001F4E06111600B4A019911700C480068D4
:1089D00040F470000A4908600846006840F07040A2
:1089E0000860FFF7F1FE002006490860FAF79CFBDB
:1089F00000201CBD00E400E02C0400203004002016
:108A000020ED00E02804002010B500BF502080F3C6
:108A10001188BFF34F8FBFF36F8F00BF00F04EF888
:108A200018B14FF080500449086000BF002080F367
:108A3000118800BF10BD000004ED00E02DE9FF4FDC
:108A400085B0804689461746DDE912ABB800FFF7CE
:108A5000CBFC064656B15420FFF7C6FC04460CB1C9
:108A6000266304E03046FFF765FE00E000247CB199
:108A70000020CDE900ABCDE902403A4649464046E8
:108A8000089BFFF7B9FB2046FFF7CEFA012501E06E
:108A90004FF0FF35284609B0BDE8F08F0549096859
:108AA00009B9012005E00449096809B9022000E07C
:108AB00000207047500400206C0400202DE9F04194
:108AC0004FF0000844480068002877D14348006808
:108AD000451C4248056015BB41480068006808B95C
